S0130000555341525473656E7365722E73726563F2
S11300000C942A000C943F000C943F000C943F0085
S11300100C943F000C943F000C943F000C943F0060
S11300200C943F000C943F000C943F000C943F0050
S11300300C943F000C943F000C943F000C943F0040
S11300400C943F000C943F000C943F000C943F0030
S11300500C943F0011241FBECFE5D8E0DEBFCDBF16
S113006010E0A0E6B0E0E2EDF0E002C005900D92F1
S1130070A236B107D9F70E9441000C9467000C9492
S11300800000B898B99AC09A88E18AB986E880BD18
S11300908091600090916100892F990F990B80BD28
S11300A08091600089B991E0B0990CC05D9BFECF4E
S11300B09CB95F9BFECF8CB1813011F4C19AF4CF0F
S11300C0C198F2CF5D9BFECF1CB8C198EDCFF894D8
S10500D0FFCF5C
S10500D2C50261
S9030000FC
