:100000000C942A000C943F000C943F000C943F0089
:100010000C943F000C943F000C943F000C943F0064
:100020000C943F000C943F000C943F000C943F0054
:100030000C943F000C943F000C943F000C943F0044
:100040000C943F000C943F000C943F000C943F0034
:100050000C943F0011241FBECFE5D8E0DEBFCDBF1A
:1000600010E0A0E6B0E0E8ECF2E002C005900D92EE
:10007000A239B107D9F70E940E010C9462010C94C9
:100080000000969A00C0969808951F93CF93DF932F
:100090001F92CDB7DEB7662311F0949A01C09498F1
:1000A000959891B39F6091BB12B3107F982F929552
:1000B0009F70912B92BB89830E94410089818F7030
:1000C000812B82BB0E9441001F6012BB0F90DF9109
:1000D000CF911F9108959498959A81B3807F81BBA9
:1000E000969A00C080B3969800C0969A00C090B3CC
:1000F00096989F708295807F892B08950E946B004F
:1001000087FDFCCF88E090E00197F1F70C946B003D
:10011000CF93C82F0E947E0060E08C2FCF910C946B
:100120004500CF93C82F0E947E0061E08C2FCF91B5
:100130000C944500611102C0805801C080540C9499
:1001400088000E947E0090E0089581E00C94880071
:1001500082E00C948800CF93C82F0E947E00CA30A2
:1001600049F4803410F480E401C080E08058CF91DD
:100170000C94880061E08C2FCF910C944500CF93B4
:10018000DF93EC0102C00E94AB0089918111FBCF8B
:10019000DF91CF910895CF93DF93EC0102C00E94CD
:1001A000AB00FE01219684918111F9CFDF91CF91AF
:1001B00008951F93CF93DF93182F91B39F6791BB3F
:1001C000E0E0FAEF3197F1F7919A909A0E9441009E
:1001D000E0E0FEE43197F1F70E944100C0E0D1E099
:1001E000FE013197F1F70E944100FE013197F1F7CE
:1001F00090980E9441002197F1F788E20E948800C0
:1002000088E00E9488000E94A50086E00E94880085
:10021000812FDF91CF911F910C9488008EE00E9476
:10022000D9000E94A5000E94A800B898C09A60E07A
:1002300080E0B09B1EC00E949A0080E690E00E9481
:10024000BF0061E080E00E949A0081E790E00E9498
:10025000BF002FEF83ED90E3215080409040E1F705
:1002600000C0000061E080E00E949A0085E790E015
:100270001DC00E949A0089E790E00E94BF0061E0E3
:1002800080E00E949A008AE890E00E94BF002FEF71
:1002900083ED90E3215080409040E1F700C00000E2
:1002A00061E080E00E949A008EE890E00E94BF002A
:1002B0002FEF85EA9EE0215080409040E1F700C09A
:0802C0000000B3CFF894FFCF5A
:1002C800302C30206920616D20616E206F776C21A1
:1002D80000302C30007E2C7E006920616D2061206A
:1002E8006361742021205E5F5E005E2C5E002D2C11
:0202F8002D00D7
:00000001FF
