:100000000C942A000C9447000C9447000C94470071
:100010000C9447000C9447000C9447000C94470044
:100020000C9447000C9447000C9447000C94470034
:100030000C9447000C945D000C9447000C9447000E
:100040000C9447000C9447000C9447000C94470014
:100050000C94470011241FBECFE5D8E0DEBFCDBF12
:1000600010E0A0E6B0E0ECE2F3E002C005900D92F3
:10007000AA36B107D9F710E0AAE6B0E001C01D9298
:10008000A038B107E1F70E947B010C9494010C9415
:1000900000005D9BFECF8CB90895CF93DF93EC01F8
:1000A00002C00E94490089918111FBCFDF91CF915D
:1000B00008955F9BFECF8CB108951F920F920FB6EB
:1000C0000F9211242F933F934F935F936F937F93DE
:1000D0008F939F93AF93BF93EF93FF930E94590029
:1000E00080936B00E0916A00F0E0E459FF4F80815B
:1000F000811102C010926A00FF91EF91BF91AF9100
:100100009F918F917F916F915F914F913F912F912F
:100110000F900FBE0F901F901895C09A00C0C09806
:100120000895CF93DF931F92CDB7DEB7662311F00A
:10013000969A01C0969897988A9A8B9A8C9A8D9ADB
:10014000959894989398929887FD959A86FD949A9D
:1001500085FD939A84FD929A89830E948D009598DB
:10016000949893989298898183FD959A82FD949AA8
:1001700081FD939A80FD929A0E948D00929A939AA3
:10018000949A959A0F90DF91CF9108959698979AA7
:100190008A988B988C988D98C09A00C0829902C0DA
:1001A00080E001C080E183998062849980648599B0
:1001B0008068C09800C0C09A00C08299816083990D
:1001C00082608499846085998860C09808950E94AF
:1001D000C60087FDFCCF88E090E00197F1F70C9412
:1001E000C600CF93C82F0E94E70060E08C2FCF910C
:1001F0000C949100CF93C82F0E94E70061E08C2FF0
:10020000CF910C949100611102C0805801C08054BC
:100210000C94F1000E94E70090E0089581E00C94B6
:10022000F10082E00C94F100CF93C82F0E94E70008
:10023000CA3049F4803410F480E401C080E0805872
:10024000CF910C94F10061E08C2FCF910C94910030
:10025000CF93DF93EC0102C00E94140189918111B8
:10026000FBCFDF91CF910895CF93DF93EC0102C0D4
:100270000E941401FE01219684918111F9CFDF9132
:10028000CF9108951F93CF93DF93182F8E9A8F9A53
:10029000B89A8A9A8B9A8C9A8D9AE0E0FAEF319705
:1002A000F1F7939A929A0E948D00E0E0FEE4319774
:1002B000F1F70E948D00C0E0D1E0FE013197F1F727
:1002C0000E948D00FE013197F1F792980E948D00F7
:1002D0002197F1F788E20E94F10088E00E94F10086
:1002E0000E940E0186E00E94F100812FDF91CF91E4
:1002F0001F910C94F10088E18AB986E880BD579A75
:1003000010BC8FEC89B978948EE00E9442010E9463
:100310000E010E94110180E690E00E944D008CE6E3
:0C03200090E00E942801FBCFF894FFCF72
:0A032C0048656C6C6F77212000001B
:00000001FF
