:1000000012C019C018C017C016C015C014C013C044
:1000100012C011C010C00FC00EC00DC00CC00BC06C
:100020000AC009C008C011241FBECFE5D4E0DEBF5E
:10003000CDBF13D0D3C0E4CF80E487B984E886B9BC
:10004000089597B18770987F892B87B9369A36992A
:10005000FECF24B135B1C9010895CF93DF93CDB759
:10006000DEB729970FB6F894DEBF0FBECDBF0E9452
:100070001C008FB5826A8FBD8EB58B618EBD87E8FF
:1000800093E197BD86BD8D9A87B38F6087BB8FE064
:1000900088BB98E7E92EF12C2CE3C22EDD24D39403
:1000A00039EAA32EBB24B3944FEE842E9924939463
:1000B00001E010E0FBBCEABC2FEF47E98AE32150E6
:1000C00040408040E1F700C0000080E00E94210035
:1000D0009A8389839FEF2BE44DE19150204040406B
:1000E000E1F700C00000DBBCCABC8FEF97E92AE350
:1000F000815090402040E1F700C0000080E00E9465
:1001000021009C019C838B834FEF8BE49DE1415048
:1001100080409040E1F700C000007724739449814B
:100120005A81421753070CF0712CBBBCAABC2FEFAD
:1001300047E98AE3215040408040E1F700C00000D9
:1001400080E00E9421009C019E838D839FEF4BE401
:100150008DE1915040408040E1F700C00000E72D64
:10016000F0E0EE0FFF1F81E090E08C0F9D1FE80F85
:10017000F91F408151814217530714F0672D01C0C8
:1001800062E09BBC8ABC9FEF27E94AE39150204084
:100190004040E1F700C0000080E069870E94210034
:1001A0009C0198878F838FEF9BE44DE181509040B5
:1001B0004040E1F700C0000049815A81698542173B
:1001C00053070CF463E018BA28B3C801062E01C027
:1001D000880F0A94EAF7282B28BB6CCFF894FFCF3E
:00000001FF
