S00E00005553415254732E7372656314
S11300000C942A000C943F000C943F000C943F0085
S11300100C943F000C943F000C943F000C943F0060
S11300200C943F000C943F000C943F000C943F0050
S11300300C943F000C943F000C943F000C943F0040
S11300400C943F000C943F000C943F000C943F0030
S11300500C943F0011241FBECFE5D8E0DEBFCDBF16
S113006010E0A0E6B0E0E0EEF0E002C005900D92F2
S1130070A236B107D9F70E9453000C946E000C9479
S1130080000080E487B987E886B9089597B187703E
S1130090987F982B97B9369A3699FECF24B135B10B
S11300A0822F932F08950E9441008AB188618AB9F2
S11300B086E880BD8091600090916100892F990F3E
S11300C0990B80BD8091600089B95D9BFECF80E073
S11300D00E9446008CB95F9BFECFF7CFF894FFCF08
S10500E0C50253
S9030000FC
