:100000000C942A000C9434000C9434000C943400AA
:100010000C9434000C9434000C9434000C94340090
:100020000C9434000C9434000C9434000C94340080
:100030000C9434000C9434000C9434000C94340070
:100040000C9434000C9434000C9434000C94340060
:100050000C94340011241FBECFE5D8E0DEBFCDBF25
:100060000E9448000C9473000C94000080E487B94F
:1000700087E886B9089597B18770987F982B97B9CC
:10008000369A3699FECF24B135B1822F932F089539
:100090000E9436008E9A8D9A80E00E943B00C82F05
:1000A000D92F81E00E943B00282F392FCE01821BDF
:1000B000930B02973CF0C13981E0D8071CF0969A67
:1000C00095980AC0C9018C1B9D0B02972CF0213911
:1000D000314014F09698959A8FE493EC0197F1F7DC
:0A00E00000C00000D9CFF894FFCF54
:00000001FF
