:1000000012C019C018C017C016C015C014C013C044
:1000100012C011C010C00FC00EC00DC00CC00BC06C
:100020000AC009C008C011241FBECFE5D4E0DEBF5E
:10003000CDBF02D047C0E4CF8D9A8FB582688FBD07
:100040008EB58B618EBD87E893E197BD86BD8DE748
:1000500090E09BBD8ABD33C02AB53BB52F5F3F4FB3
:100060003BBD2ABDEFE9FFE03197F1F700C000008A
:1000700001968237F1E09F077CF32FEF83ED90E349
:10008000215080409040E1F700C0000082E791E0FD
:100090002AB53BB5215031093BBD2ABDEFE9FFE050
:1000A0003197F1F700C00000019791F7FFEF23EDC2
:1000B00080E3F15020408040E1F700C0000080E084
:0800C00090E0D7CFF894FFCFC8
:00000001FF
