S017000047616D65206F6620627574746F6E732E737265636F
S11300000C942A000C943C000C943C000C943C008E
S11300100C943C000C943C000C943C000C943C006C
S11300200C943C000C943C000C943C000C943C005C
S11300300C943C000C943C000C943C000C943C004C
S11300400C943C000C943C000C943C000C943C003C
S11300500C943C0011241FBECFE5D8E0DEBFCDBF19
S113006020E0A0E6B0E001C01D92A037B207E1F79E
S11300700E94E7000C9404010C940000FC01EE0FB4
S1130080FF1FE459FF4F208131812F5F3F4F3183A0
S11300902083253F31400CF47EC0FC01EE0FFF1F8E
S11300A0EC59FF4F20813181232B09F062C0FC0100
S11300B0EE0FFF1FEC59FF4F21E030E03183208326
S11300C0009759F468B30090600002C0220F331FF8
S11300D00A94E2F7262B28BB10C08130910569F4FD
S11300E062B341E050E09A010090620002C0220F26
S11300F0331F0A94E2F7262B22BBFC01EE0FFF1FED
S1130100E05AFF4F208131812F5F3F4F318320839D
S11301102730310574F12AE030E050E84FEF0097C2
S113012049F448BBE3ECF9E03197F1F700C0000073
S113013058BB0BC08130910521F542BBE3ECF9E0DB
S11301403197F1F700C0000052BBE3ECF9E03197BE
S1130150F1F700C000002150310909F71092610045
S113016010926000109263001092620020E828BB95
S113017022BBFC01EE0FFF1FE459FF4F11821082D6
S11301800895E3ECF9E03197F1F700C00000813005
S11301909105D9F6D9CF0895FC01EE0FFF1FE85958
S11301A0FF4F208131812F5F3F4F31832083253FD3
S11301B0314064F0880F991FFC01EC59FF4F118204
S11301C01082FC01E859FF4F1182108208958FE7D5
S11301D087BB81BB80E888BB82BBB79905C080E040
S11301E090E00E943E0004C080E090E00E94CC00B9
S11301F0879905C081E090E00E943E00EECF81E047
S10F020090E00E94CC00E9CFF894FFCFFE
S9030000FC
