:100000000C9434000C943E000C943E000C943E0082
:100010000C943E000C943E000C943E000C943E0068
:100020000C943E000C943E000C943E000C943E0058
:100030000C943E000C943E000C943E000C943E0048
:100040000C943E000C943E000C943E000C943E0038
:100050000C943E000C943E000C943E000C943E0028
:100060000C943E000C943E0011241FBECFEFD8E04C
:10007000DEBFCDBF0E9440000C94B7000C9400007E
:1000800084B18E6084B920985398529880918000F2
:10009000836A8093800080918100896080938100D1
:1000A0008091B00083688093B0008091B100896036
:1000B0008093B10010928900109288001092B300D2
:1000C00080EE90E090938B0080938A00189B1DC077
:1000D0008091880090918900019690938900809387
:1000E000880080918800909189008115944020F0CB
:1000F00010928900109288008FEF91EE24E08150D9
:1001000090402040E1F700C000004B9B1DC0809153
:100110008A0090918B00019690938B0080938A00C7
:1001200080918A0090918B008115944020F010926C
:100130008B0010928A008FEF91EE24E08150904066
:100140002040E1F700C000004C9BC0CF8091B3007D
:100150008F5F8093B3008091B3008FEF91EE24E026
:10016000815090402040E1F700C00000AFCFF894EC
:02017000FFCFBF
:00000001FF
