:100000000C942A000C943F000C943F000C943F0089
:100010000C943F000C943F000C943F000C943F0064
:100020000C943F000C943F000C943F000C943F0054
:100030000C943F000C943F000C943F000C943F0044
:100040000C943F000C943F000C943F000C943F0034
:100050000C943F0011241FBECFE5D8E0DEBFCDBF1A
:1000600010E0A0E6B0E0E0E4F1E002C005900D92FF
:10007000A23FB107D9F70E948D000C949E000C940A
:1000800000008C9A8FB580628FBD8EB582618EBD67
:100090000895EF92FF920F931F93CF93DF93FC018C
:1000A00088EE93E0689F7001699FF00C1124A7E32C
:1000B000B0E060E270E000E010E021C08281938156
:1000C00034962130310519F419BC18BC08C0B9BDEB
:1000D000A8BD432F552747FD5A9547BD26BD9B0117
:1000E000281B390BC901181619064CF49801E701B1
:1000F0002197F1F72F5F3F4F28173907C1F720816C
:10010000318121153105D1F619BC18BCDF91CF9191
:100110001F910F91FF90EF9008950E94410061E1BF
:1001200080E690E00E9449002FE38DE093E02150AB
:1001300080409040E1F700C00000F1CFF894FFCF7D
:10014000C2100800C2100800010010002F0B0800A8
:100150002F0B0800010010008E0C10000100100091
:100160004D0D100001001000EE0E100001001000F7
:100170006108080061080800010010002F0B08004A
:10018000010010008E0C1000010010004D0D100039
:1001900001001000EE0E10000100100061080800C0
:1001A00061080800010010002F0B0800010010007A
:1001B0008E0C1000010010004D0D10000100100009
:1001C0008E0C100001001000EE0E0800EE0E08006C
:0201D00000002D
:00000001FF
