S01000006C6561726E696E672E73726563C4
S11300000C942A000C943C000C943C000C943C008E
S11300100C943C000C943C000C943C000C943C006C
S11300200C943C000C943C000C943C000C943C005C
S11300300C943C000C943C000C943C000C943C004C
S11300400C943C000C943C000C943C000C943C003C
S11300500C943C0011241FBECFE5D8E0DEBFCDBF19
S113006020E0A0E6B0E001C01D92A236B207E1F79D
S11300700E943E000C9493000C940000B89AB99826
S1130080BA9AC19A109261001092600034E021E0A3
S1130090B19910C080916000909161000196909395
S11300A061008093600083E294EF0197F1F700C050
S11300B0000006C083E294EF0197F1F700C000004E
S11300C0809160009091610083309105B9F03CF417
S11300D08130910571F07CF4892B41F0D9CF8530C2
S11300E09105A9F07CF0069799F618C0C098C298BB
S11300F0CFCFC09ACDCFC098C29ACACF88B3832736
S113010088BBC6CF88B3822788BBC298C1CF88B3C7
S1130110822788BB88B3832788BBBACF109261003B
S10D012010926000B5CFF894FFCFF1
S9030000FC
