:100000000C942A000C9434000C9434000C943400AA
:100010000C9434000C9434000C9434000C94340090
:100020000C9434000C9434000C9434000C94340080
:100030000C9434000C9434000C9434000C94340070
:100040000C9434000C9434000C9434000C94340060
:100050000C94340011241FBECFE5D8E0DEBFCDBF25
:100060000E9436000C944B000C940000899A8898EA
:10007000909A92E0809904C082B3892782BB01C024
:10008000919A2FE53AEE80E0215030408040E1F730
:0A00900000C00000EFCFF894FFCF8E
:00000001FF
