S0160000436F756E7465725F54696D6572732E737265635B
S11300000C942A000C9434000C9434000C943400A6
S11300100C9434000C9434000C9434000C9434008C
S11300200C9434000C9434000C9434000C9434007C
S11300300C9434000C9434000C9434000C9434006C
S11300400C9434000C9434000C9434000C9434005C
S11300500C94340011241FBECFE5D8E0DEBFCDBF21
S11300600E9436000C9442000C9400008E9A8EB5C7
S113007081608EBD8CB59DB5892B11F0969AFACF0F
S10B00809698F8CFF894FFCF25
S9030000FC
