S00C0000746573742E7372656358
S11300000C942A000C943F000C943F000C943F0085
S11300100C943F000C943F000C943F000C943F0060
S11300200C943F000C943F000C943F000C943F0050
S11300300C943F000C943F000C943F000C943F0040
S11300400C943F000C943F000C943F000C943F0030
S11300500C943F0011241FBECFE5D8E0DEBFCDBF16
S113006012E0A0E6B0E0E4E9F1E002C005900D92F0
S1130070A835B107D9F70E948D000C94C8000C94E0
S113008000008C9A8FB580628FBD8EB582618EBD63
S11300900895EF92FF920F931F93CF93DF93FC0188
S11300A088EE93E0689F7001699FF00C1124A4E628
S11300B0B0E060E270E000E010E021C08281938152
S11300C034962130310519F419BC18BC08C0B9BDE7
S11300D0A8BD432F552747FD5A9547BD26BD9B0113
S11300E0281B390BC901181619064CF49801E701AD
S11300F02197F1F72F5F3F4F28173907C1F7208168
S1130100318121153105D1F619BC18BCDF91CF918D
S11301101F910F91FF90EF9008950E94410068E2B3
S113012080E690E00E9449002FE38DE093E02150A7
S113013080409040E1F700C0000064E182E890E074
S11301400E9449002FE38DE093E0215080409040CD
S1130150E1F700C0000061E184E291E00E944900FF
S11301602FE38DE093E0215080409040E1F700C000
S1130170000063E286EB91E00E9449002FE38DE0EA
S113018093E0215080409040E1F700C00000C7CFC9
S1070190F894FFCF0D
S113019477070800A7060800ED050800980508007D
S11301A4FC04080070040800F4030800BC030800FD
S11301B40000ED05080047060800ED0508004706A1
S11301C40800ED050800E9070800A70608007707FA
S11301D40800E108080001000800EE0E0800DA0B2C
S11301E40800E1080800E907040001000800DA0B2C
S11301F4080068090800E9070800770704000100FB
S11302040800DA0B0800DA0B080047060800ED05BD
S1130214080047060800ED050800E9070800A706DA
S1130224080077070800E108080001000800EE0E42
S11302340800DA0B0800E1080800E90704000100DB
S11302440800DA0B080077070800E9070800E1084A
S113025404000000C2100800C210080001001000CD
S11302642F0B08002F0B0800010010008E0C100047
S1130274010010004D0D100001001000EE0E1000DE
S11302840100100061080800610808000100100062
S11302942F0B0800010010008E0C10000100100048
S11302A44D0D100001001000EE0E100001001000AE
S11302B46108080061080800010010002F0B080001
S11302C4010010008E0C1000010010004D0D1000F0
S11302D4010010008E0C100001001000EE0E080046
S11302E4EE0E08000000EE130800B3170800010026
S11302F41000B3171000B3171000EE131000C1114F
S113030410009A1A0800010010009A1A1000B3177A
S113031410005F160800EE0E0800EE0E1000EE0E3C
S11303241000D20F1000EE131000C1111000EE13D0
S113033410005F161000B317080001001000EE133C
S11303441000C1111000C1110800C11110004D0D9D
S11303541000EE0E1000D20F1000D20F1000EE0E9B
S11303641000C1111000EE13080001001000DD1D7F
S113037410009A1A1000B3171000C1111000C11113
S10B03841000EE130800000054
S9030000FC
