:100000000C942A000C9434000C9434000C943400AA
:100010000C9434000C9434000C9434000C94340090
:100020000C9434000C9434000C9434000C94340080
:100030000C9434000C9434000C9434000C94340070
:100040000C9434000C9434000C9434000C94340060
:100050000C94340011241FBECFE5D8E0DEBFCDBF25
:100060000E943B000C9443000C94000080E487B98C
:1000700087E886B908958D9A0E94360088EE9DEF34
:0A0080009BBD8ABDFFCFF894FFCFAF
:00000001FF
