:100000000C942A000C9434000C9434000C943400AA
:100010000C9434000C9434000C9434000C9448007C
:100020000C9434000C9434000C9434000C94340080
:100030000C9434000C9434000C9434000C94340070
:100040000C9434000C9434000C9434000C94340060
:100050000C94340011241FBECFE5D8E0DEBFCDBF25
:100060000E9436000C9472000C940000789481B3C6
:100070008F6781BB82B3856582BB8EB58B608EBD79
:1000800089B7806189BF88E09DE39BBD8ABDFFCFB2
:100090001F920F920FB60F9211242F933F934F93FD
:1000A0005F936F938F939F9380E090E041E050E0E7
:1000B00062B39A01082E02C0220F331F0A94E2F79E
:1000C000262722BB01968730910591F79F918F914A
:1000D0006F915F914F913F912F910F900FBE0F90B5
:0800E0001F901895F894FFCF62
:00000001FF
