S00E00005553415254722E7372656315
S11300000C942A000C943F000C943F000C943F0085
S11300100C943F000C943F000C943F000C943F0060
S11300200C943F000C943F000C943F000C943F0050
S11300300C943F000C943F000C943F000C943F0040
S11300400C943F000C943F000C943F000C943F0030
S11300500C943F0011241FBECFE5D8E0DEBFCDBF16
S113006010E0A0E6B0E0E8ECF0E002C005900D92EC
S1130070A236B107D9F70E9441000C9462000C9497
S113008000008F9A8AB188618AB986E880BD809120
S1130090600090916100892F990F990B80BD809128
S11300A0600089B991E05F9BFECF8CB1853628F062
S11300B0979A5D9BFECF9CB9F6CF97985D9BFECF38
S10B00C09CB9F1CFF894FFCFC5
S10500C8C5026B
S9030000FC
