:100000000C942A000C9434000C9434000C943400AA
:100010000C9434000C9434000C9434000C94340090
:100020000C9434000C9434000C9434000C94340080
:100030000C9434000C9434000C9434000C94340070
:100040000C9434000C9434000C9434000C94340060
:100050000C94340011241FBECFE5D8E0DEBFCDBF25
:100060000E9448000C946B000C94000097B18770BC
:10007000987F982B97B9369A3699FECF24B135B12F
:10008000822F932F089580E487B987E886B9089571
:1000900081B3806381BB0E9443008FB58B6A8FBDA3
:1000A0008EB582608EBD1BBC1ABC19BC18BC80E02A
:1000B0000E9436009BBD8ABD81E00E94360099BD3A
:1000C00088BD2FEF86E791E0215080409040E1F716
:0A00D00000C00000ECCFF894FFCF51
:00000001FF
