:100000000C942A000C9434000C9434000C943400AA
:100010000C9434000C9434000C9434000C94340090
:100020000C9434000C9434000C9434000C94340080
:100030000C9434000C9434000C9434000C94340070
:100040000C9434000C9434000C9434000C94340060
:100050000C94340011241FBECFE5D8E0DEBFCDBF25
:100060000E9436000C944A000C940000B89AB99A89
:10007000BA9ABB9ABC9AC09AC198C49AC398C29AB9
:100080002FE788E391E0215080409040E1F700C0E5
:080090000000F6CFF894FFCF49
:00000001FF
